:020000040000FA
:1000000070110020750100007D0100007F010000DB
:1000100000000000000000000000000000000000E0
:10002000000000000000000000000000810100004E
:1000300000000000000000008301000085010000B6
:100040008701000087010000870100008701000090
:100050008701000087010000870100008701000080
:100060008701000087010000870100008701000070
:100070008701000087010000870100008701000060
:100080008701000087010000870100008701000050
:100090000000000000000000000000000000000060
:1000A0000000000000000000000000000000000050
:1000B00087010000000000008701000087010000A8
:1000C00000F002F800F046F80CA030C808382418F8
:1000D0002D18A246671EAB4654465D46AC4201D180
:1000E00000F038F87E460F3E0FCCB646012633426C
:1000F00000D0FB1AA246AB4633431847480C000019
:10010000680C0000103A02D378C878C1FAD85207B8
:1001100001D330C830C101D504680C6070470000BD
:100120000023002400250026103A01D378C1FBD813
:10013000520700D330C100D50B6070471FB500983F
:10014000019900F0A6FB00F073F81FBD10B500F098
:10015000DBF810BD00F03DF91146FFF7EFFF00F0AE
:10016000DDFD00F045FB03B4FFF7F0FF03BC00F03A
:1001700023FD00000748804707480047FEE7FEE7E9
:10018000FEE7FEE7FEE7FEE704480549054A064BA1
:1001900070470000ED0C0000C1000000700100205D
:1001A00070110020700D0020700D00200FB4054963
:1001B00010B503AA029800F00BF810BC08BC04B0FC
:1001C0001847000064000020704770477047000027
:1001D000084B70B50D467B4400F013F804462846E2
:1001E00000F022F8002802D00020C04370BD204655
:1001F00070BD0000230B000001694A1C02610878F1
:10020000704700B58FB00291002105910549019317
:100210007944039111460490684600F01FF90FB02D
:1002200000BD0000E5FFFFFFC06880210840704767
:1002300010B54348542100F007FB4248542100F018
:1002400003FB4148542100F0FFFA40483C493D4B34
:10025000404A01603E4803603B4810605A1C0A65F2
:10026000411C1965012101653C48354A3AA1784491
:1002700000F024FA002804D1384878440C3800F003
:10028000BFFA38482F4A36A1784400F017FA002800
:1002900004D1344878440C3800F0B2FA32482A4A83
:1002A0002FA1784400F00AFA002804D12E4878449F
:1002B0000C3800F0A5FA40232148DC00002122463A
:1002C00000F0D6F9002804D0244878445C3800F0C7
:1002D00097FA1C4822464023002100F0C9F9002863
:1002E00004D0204878445C3800F08AFA1648224648
:1002F0001023002100F0BCF9002804D01A487844EB
:100300005C3800F07DFA10BD0F4870B5006D4408F0
:100310000B48640000F046FA0A4800F043FA0A4825
:1003200000F040FA09E0206D450820466D0000F01D
:1003300039FA204600F06CF82C46002CF3D170BD41
:100340001000002064000020B800002004000020FD
:10035000080000200C00002072000000C60A000007
:1003600077000000B00A00009A0A00000EB5019163
:10037000009000F0FFFB029069460120ABBE0EBD6D
:1003800008B5694600900220ABBE08BD1FB56B469C
:1003900007C369460520ABBE04B010BD1FB56C464F
:1003A0000FC469460620ABBEF6E708B56946009063
:1003B0000920ABBE08BD1CB500900A20019169461A
:1003C000ABBE1CBD704708B5694600900C20ABBEA3
:1003D00008BD754600F03AFAAE4605006946534638
:1003E000C008C000854618B020B5FFF7CDFE60BC40
:1003F00000274908B6460026C0C5C0C5C0C5C0C54F
:10040000C0C5C0C5C0C5C0C5403D49008D46704788
:1004100070B50446051F00F01FFA0068002C1AD0C2
:10042000446801E020466468002C01D0AC42F9D356
:1004300001680A18AA4204D12A6805468918016091
:1004400000E0456028684119A14205D161686960F2
:1004500021684018286070BD6C6070BDF8B5064614
:1004600000244768806800903046F56803E00099F2
:10047000B847641C3046A8470028F8D12046F8BD8C
:10048000F8B505460C46C8680521C9048843012112
:1004900089050843E060800602D5204600F028FB6D
:1004A0007149E0680140022903D0204600F0CAFAF1
:1004B000BCE00521012249030140D20391420FD142
:1004C000C00306D56168E06A884200D808466060CB
:1004D00006E02069E06260606069FFF774FFA06178
:1004E000A1680022EEB200290EDAE06883050BD481
:1004F000C943A1600921226049030843E0606068A4
:10050000411C61600670ACE0E068012149030843CA
:10051000E060002020602069002831D16069FFF789
:1005200044FF012527462437ED02002816D0A08974
:100530008005800F08D0E06900F0D8F9002820611C
:1005400002D0E068284318E001202761E061E068FC
:10055000032109028843012189020DE0E06900F0CE
:10056000C5F900282061EFD0E0682843E0608105EC
:10057000890F03D1FF2101310843E06020696060E9
:10058000E2683A4F2569D0051FD56168E06A884264
:1005900000D80846411B05D02246284600F05CFAE8
:1005A000002843D1E068010204D5E56200206560BF
:1005B000A06053E0691CE1626160E169491E384353
:1005C000A160E06030462E70F8BD100201D53A40BF
:1005D00009E06068411C61600670E06838430A2EDB
:1005E000E06006D00022E16A6068814203D90B46D0
:1005F00002E00122F7E70346A7895B1B7F0504D4CD
:10060000E7699F4201DD002A1ED0814200D80146E1
:100610000F1A0020E5626560002BA06009DD22460C
:100620001946284600F018FA002802D00020C043DE
:10063000F8BD002F08D0A069E5626560C01BA0610D
:10064000E06810210843E060E068000209D56168B5
:10065000A069E562491B40186560A0610120C043A4
:10066000F8BD3046F8BD0000821000000000010017
:1006700070B5C468A50713D0650211D4D51FF93D24
:100680000AD0FF3D6D1E07D0FF3DFF3D022D07D173
:1006900001462431012305E0074E5D1EB54201D31A
:1006A000012070BD0161C36141600F2109028C43CB
:1006B0001443C460002070BDFFFFFF00F7B516466D
:1006C0000C46104600F06EF82078611C61280AD0B4
:1006D000722802D0772839D102E00125002404E0F5
:1006E0000225042401E02D4D0824022203230127C2
:1006F0000878491C2B2806D0622807D02039C87FEB
:10070000742807D008E01D431443F1E70420054393
:100710003C43EDE71020044300982146FFF726FEF6
:10072000411C13D00021316171600121F560490243
:10073000F1617061200704D530460222002100F0EB
:1007400007F9306D384330653046FEBD0020FEBDF0
:10075000F8B50D460646124C206DC10704D041087D
:1007600004D044086400F7E7224610E0542000F06B
:10077000BDF8070010D07908206D4900012211430F
:10078000084354212065384600F05EF83A46294671
:100790003046FFF793FFF8BD0020F8BD028000004F
:1007A00010000020FEB50446466900690F4F019015
:1007B000E56800200090A80707D0204600F072F9F5
:1007C0003046FFF7DDFD002801DA3846FEBD28057A
:1007D00002D50198FFF71CFE4C21204600F034F8AA
:1007E000206D4008400020650098FEBDFFFFFFFF20
:1007F00010B50446C046C0462046FFF7B4FC10BD05
:1008000010B500F09DF900F095F910BD01E004C0AD
:10081000091F0429FBD28B0701D50280801CC90760
:1008200000D00270704700290BD0C30702D00270BD
:10083000401C491E022904D3830702D50280801C74
:10084000891EE3E70022EEE70022DFE70048704759
:100850000C01002070470000004870471401002080
:10086000704770477047704738B504460A46002005
:100870006946C046C046002805D002462046009979
:1008800000F0A7F9012038BD10B5012000F0F6F9FD
:1008900010BDF8B5C046C046054600200C461020E5
:1008A000C0460646A819A0420DD932466946002026
:1008B000C046C046070001D100F0E0F90098A04210
:1008C00000D00546C419FFF7C7FFF61D07460560AF
:1008D000F008C0004619284600F074F9B44204D06C
:1008E00031463868A21B00F074F9F8BD70B50646B1
:1008F000FFF7B2FF056830460B30C408E400B4428D
:1009000001D8002070BD68682A46002818D0016808
:10091000A14211D30B46214608318B4208D34368CC
:1009200001194B6003681B1B0B605160046001E000
:1009300041685160001D70BD024640680028E6D144
:1009400021462846FFF790FF0028DCD170BD00004B
:10095000F8B5044616460D464769007B800730D03F
:100960003846FFF722FD00282BD132461026002AF8
:1009700025D0012A02D0022A23D104E0204600F02B
:1009800042F945191BE03846FFF71DFDE168314388
:100990000028E16004DA204600F054F80120F8BD98
:1009A000C9030BD56268E16A914200D81146A26979
:1009B00089182269891A814200DD08462D18002D08
:1009C00001DA0220F8BDE16A6068E268814206D27D
:1009D0009103E06203D5012149048A433243A669A9
:1009E000AE4211DCE16A814201D90B4600E00346C8
:1009F0009F192369FF1AAF4206DD814201D90F46D4
:100A000000E007469F4206D1202002430020A0605C
:100A1000A56220600DE0AD1BE669AE1B8142A660B9
:100A200000D90846C01A281A206058196060202092
:100A30008243034802400020E26040342072F8BD47
:100A4000BFCFD7FFC1688022114392039143C16099
:100A50000021816001607047F7B514460E463348A7
:100A6000D5685769054209D03846A169FFF7A3FC4C
:100A7000002811DB2D48C0430540E5602B46324677
:100A800038460099FFF782FC4200A1695208B21A69
:100A900089180028A16104D02046FFF7D3FF002069
:100AA000C043FEBD70B504460569C06A61688842EE
:100AB00000D80846E1680522D2049143E160C903E9
:100AC00014D5A84209D02246411B2846FFF7C4FF8F
:100AD000002802D00020C04370BDE56200206560A0
:100AE000A060E068012109048843E060002070BD37
:100AF00010B50446C06820218843E060A16AA0695F
:100B000088420ED02046FFF7CDFFE068032109039D
:100B1000884310210843E060A06AA0612069E06278
:100B200060600349E0680840E06010BD100002000A
:100B3000BFBFFFFF10B5002801D000F03DF810BD89
:100B400010B5014602A000F07FF8012010BD0000A2
:100B500053494752545245443A205265646972657C
:100B600063743A2063616E2774206F70656E3A205B
:100B70000000000030B5441C03E00178401C00294F
:100B80000DD08107F9D10B4BDD0104C8D11A914377
:100B90002940FAD0001B0A0603D0C01E30BD001B3E
:100BA00030BD0A0401D0801E30BD0902FCD0401EB9
:100BB00030BD00000101010101491820ABBEFEE774
:100BC0002600020000210160416080607047102013
:100BD000704710B50346406801E0034640680028AE
:100BE00001D08842F9D31868C3188B4206D0CB1CB9
:100BF000D808C000001D411A521A0146081D0A609B
:100C0000FFF706FC10BD10B50146C268900703D07F
:100C1000900607D5886A0AE000F03CF801210160DF
:100C2000881E10BD8B694868C0180B69C01A403116
:100C30000B7A002B02D0497A401A10BD1103FCD563
:100C40000028FADD401E10BD70B505460C460A208E
:100C500000E06D1C00F018F8002D06D02878002860
:100C6000F7D102E0641C00F00FF8002C02D02078CD
:100C70000028F7D10A2000F007F870BD10B500F089
:100C80000DF8FFF757FF10BD08B56946087003203F
:100C9000ABBE08BD004870470C01002010B501280C
:100CA00005D0002103A0FFF7CFFF012010BD09A14F
:100CB000F8E7000053494752544D454D3A204F75CF
:100CC00074206F662068656170206D656D6F727944
:100CD000000000003A2048656170206D656D6F72FC
:100CE0007920636F727275707465640001480249FF
:100CF0000860704740787D010000002010B58A68C8
:100D0000002A02DCFFF7BCFB10BD521E8A604A6855
:100D1000C0B2531C4B60107010BD000010B502A093
:100D2000FFF744FA002010BD68656C6C6F20776F88
:100D3000726C640D0A0000003A7474003A74740016
:100D40003A747400640D00000000002010000000E0
:100D500004010000740D000010000020601100006C
:100D60002001000040787D0100000000000000002C
:040D7000000000007F
:04000005000000C136
:00000001FF
